:1000000007C1000033C1000031C100002FC1000052
:100010002DC100002BC1000029C1000027C1000034
:1000200025C1000023C1000021C100001FC1000044
:100030001DC100001BC1000019C1000017C1000054
:1000400015C1000013C1000011C100000FC1000064
:100050000DC100000BC1000009C100009FC30000DA
:1000600005C1000065C300003AC30000FFC00000E6
:10007000FDC00000FBC00000F9C00000F7C0000098
:10008000F5C00000F3C00000F1C00000EFC00000A8
:10009000EDC00000EBC00000E9C00000E7C00000B8
:1000A000E5C00000E3C00000E1C00000DFC00000C8
:1000B000DDC00000DBC00000D9C00000D7C00000D8
:1000C000D5C00000D3C00000D1C00000CFC00000E8
:1000D000CDC00000CBC00000C9C00000C7C00000F8
:1000E000C5C0000087028A0279027D028102C10236
:1000F0008E02920298029C02A002A602AA02AE02FE
:10010000C102B402B802BC02000021002400270092
:100110002A002D0030003300010100000401070116
:100120000A0100002200250028002B002E003100CB
:10013000340002010000050108010B010505050559
:10014000070508080808020202020A0A080804044F
:10015000040401010101010101010303030303037D
:100160000303040707070C0C0C0C0C0C0C0C02020C
:10017000020206060606060606060B0B0B0B0B0B09
:100180000B0B010210202008081020401020408096
:10019000020102010804020101020408102040804B
:1001A00080402010080402018004020180402010D9
:1001B0000804020108040201010204081020408022
:1001C000010204081020408000000A0B02090C0DF7
:1001D0000E080703040100000000000000000000FA
:1001E000000000000000000000000000000000000F
:1001F00000000000121110000000000000000000CC
:1002000000000000000000000000000000001804D2
:1002100011241FBECFEFD1E2DEBFCDBF00E00CBF87
:1002200012E0A0E0B2E0E8E7FBE000E00BBF02C0B4
:1002300007900D92AC31B107D9F722E0ACE1B2E002
:1002400001C01D92A03DB207E1F711E0C8E0D1E086
:1002500000E005C021970109802FFE017FD4C7303F
:10026000D10780E00807B1F71AD384C4C9CECF9272
:10027000DF92EF92FF920F931F93CF93DF936C0166
:100280007A018B01C0E0D0E0CE15DF0589F0D801FE
:100290006D918D01D601ED91FC910190F081E02DE1
:1002A000C6011995892B11F47E0102C02196ECCF6D
:1002B000C701DF91CF911F910F91FF90EF90DF90D9
:1002C000CF900895FC01918D828D981761F0828DF9
:1002D000DF01A80FB11D5D968C91928D9F5F9F737A
:1002E000928F90E008958FEF9FEF0895FC01918D1C
:1002F000828D981731F0828DE80FF11D858D90E089
:1003000008958FEF9FEF0895FC01918D228D892F25
:1003100090E0805C9F4F821B91098F73992708950D
:1003200085E292E0F1DF21E0892B09F420E0822FC1
:100330000895FC01848DDF01A80FB11DA35ABF4FA2
:100340002C91848D90E001968F739927848FA689D4
:10035000B7892C93A089B1898C9180648C93938DFB
:10036000848D981306C00288F389E02D80818F7DEB
:1003700080830895EF92FF920F931F93CF93DF93A3
:10038000EC0181E0888F9B8D8C8D981305C0E889E6
:10039000F989808185FD23C0F62E0B8D10E00F5F5B
:1003A0001F4F0F731127E02E8C8DE8120BC00FB674
:1003B00007FCFACFE889F989808185FFF5CFCE0166
:1003C000B8DFF2CF8B8DFE01E80FF11DE35AFF4F2E
:1003D000F0820B8FEA89FB898081806207C0EE89F9
:1003E000FF896083E889F98980818064808381E066
:1003F00090E0DF91CF911F910F91FF90EF900895C2
:10040000CF93DF93EC01888D8823C1F0EA89FB89C3
:10041000808185FD05C0A889B9898C9186FD0EC0B3
:100420000FB607FCF5CF808185FFF2CFA889B98987
:100430008C9185FFEDCFCE017CDFE8CFDF91CF91AE
:10044000089580E090E0892B19F06ADF811125C0C2
:1004500080E090E0892B41F080E090E0892B21F052
:100460000E94000081111CC080E090E0892B41F0C7
:1004700080E090E0892B21F00E940000811113C0E0
:1004800080E090E0892BA1F080E090E0892B81F062
:100490000E94000081110AC008950E940000D8CF78
:1004A0000E940000E1CF0E940000EACF0C940000FF
:1004B0000895362F90E0FC01E853FE4F4491FC0173
:1004C000EE57FE4F2491FC01E45CFE4F949199237A
:1004D00009F46AC0442309F454C050E0FA0131978A
:1004E000E231F10508F04DC08827EE58FF4F8F4FDD
:1004F00035C3809180008F7707C0809180008F7D09
:1005000003C080918000877F809380003AC084B5CB
:100510008F7702C084B58F7D84BD33C08091B000D9
:100520008F7703C08091B0008F7D8093B00029C089
:10053000809190008F7707C0809190008F7D03C0DD
:1005400080919000877F809390001BC08091A000D5
:100550008F7707C08091A0008F7D03C08091A0009D
:10056000877F8093A0000DC0809120018F7707C006
:10057000809120018F7D03C080912001877F80932F
:100580002001E92FF0E0EE0FFF1FEE5DFE4FA59179
:10059000B4918FB7F894EC91311103C020952E23BC
:1005A00001C02E2B2C938FBF0895CF93DF9390E043
:1005B000FC01EE57FE4F2491FC01E45CFE4F849158
:1005C000882361F190E0880F991FFC01E85FFE4FDE
:1005D000C591D491FC01EE5DFE4FA591B4916111DE
:1005E00009C09FB7F8948881209582238883EC9175
:1005F0002E230BC0623061F49FB7F8943881822FAC
:10060000809583238883EC912E2B2C939FBF06C06B
:100610008FB7F894E8812E2B28838FBFDF91CF917D
:1006200008953FB7F8948091210290912202A09101
:100630002302B091240226B5A89B05C02F3F19F0D4
:100640000196A11DB11D3FBFBA2FA92F982F882752
:10065000820F911DA11DB11DBC01CD0142E0660FAD
:10066000771F881F991F4A95D1F708958F929F92FF
:10067000AF92BF92CF92DF92EF92FF926B017C011B
:10068000D0DF4B015C01C114D104E104F104E9F0B5
:10069000C8DFDC01CB0188199909AA09BB09883E8A
:1006A0009340A105B10578F321E0C21AD108E10811
:1006B000F10888EE880E83E0981EA11CB11CC114BD
:1006C000D104E104F10421F7DECFFF90EF90DF9039
:1006D000CF90BF90AF909F908F90089547D21F9278
:1006E0000F920FB60F9211240BB60F922F933F93D8
:1006F0004F935F936F937F938F939F93AF93BF932A
:10070000EF93FF9385E292E014DEFF91EF91BF91AA
:10071000AF919F918F917F916F915F914F913F9199
:100720002F910F900BBE0F900FBE0F901F9018953A
:100730001F920F920FB60F9211240BB60F922F93A8
:100740008F939F93EF93FF93E0913502F0913602E0
:100750008081E0913B02F0913C0282FD12C09081C9
:1007600080913E028F5F8F7320913F02821751F07C
:10077000E0913E02F0E0EB5DFD4F958F80933E02ED
:1007800001C08081FF91EF919F918F912F910F90E8
:100790000BBE0F900FBE0F901F9018951F920F92D7
:1007A0000FB60F9211242F933F938F939F93AF9384
:1007B000BF9380911D0290911E02A0911F02B091E3
:1007C000200230911C0223E0230F2D3720F40196E4
:1007D000A11DB11D05C026E8230F0296A11DB11D64
:1007E00020931C0280931D0290931E02A0931F026F
:1007F000B09320028091210290912202A0912302C5
:10080000B09124020196A11DB11D80932102909305
:100810002202A0932302B0932402BF91AF919F9133
:100820008F913F912F910F900FBE0F901F901895B1
:10083000E5E2F2E01382128288EE93E0A0E0B0E0FD
:1008400084839583A683B78384E092E09183808339
:1008500085EC90E09587848784EC90E09787868785
:1008600080EC90E0918B808B81EC90E0938B828B7D
:1008700082EC90E0958B848B86EC90E0978B868B56
:10088000118E128E138E148EE2ECF2E086E28683D5
:100890008BE0878386E0808781E085870895789460
:1008A00084B5826084BD84B5816084BD85B5826075
:1008B00085BD85B5816085BD80916E008160809326
:1008C0006E0010928100809181008260809381008F
:1008D000809181008160809381008091800081609F
:1008E000809380008091B10084608093B1008091FA
:1008F000B00081608093B00080919100826080930D
:10090000910080919100816080939100809190008E
:100910008160809390008091A10082608093A1000B
:100920008091A10081608093A1008091A0008160EE
:100930008093A000809121018260809321018091A9
:100940002101816080932101809120018160809349
:10095000200180917A00846080937A0080917A00EF
:10096000826080937A0080917A00816080937A001F
:1009700080917A00806880937A001092C100E091A3
:100980003502F091360282E08083E0913102F091ED
:1009900032021082E0913302F09134028FEC8083B6
:1009A00010923D02E0913902F0913A0286E0808394
:1009B000E0913702F0913802808180618083E0917C
:1009C0003702F0913802808188608083E09137029D
:1009D000F0913802808180688083E0913702F09145
:1009E000380280818F7D808360E08091C802DDDDE8
:1009F00061E08091C8025DDD1092CB021092CC02C2
:100A00001092CD021092CE0261E086E1CEDD61E06F
:100A100088E1CBDD61E08AE1C8DD61E08CE1C5DD24
:100A200061E08EE1C2DD61E080E2BFDD61E082E293
:100A3000BCDD61E084E2B9DD61E087E0B6DD61E064
:100A400086E0B3DD61E085E0B0DD61E088E0ADDD4A
:100A500061E08AE0AADD61E089E0A7DD61E08DE088
:100A6000A4DD60E08DE025DD85E292E04DDC181626
:100A700019060CF06AC085E292E024DC813691050B
:100A800079F08236910509F060C060E086E111DD01
:100A900060ED77E080E090E0E9DD61E086E154C060
:100AA00061E087E006DD61E088E003DDC4E1D0E0DD
:100AB00060E086E0FEDC61E085E0FBDC60E08AE08F
:100AC000F8DC61E089E0F5DC64E170E080E090E072
:100AD000CDDD61E086E0EDDC60E085E0EADC60E051
:100AE0008AE0E7DC61E089E0E4DC64E170E080E07A
:100AF00090E0BCDD61E086E0DCDC60E085E0D9DC34
:100B000061E08AE0D6DC60E089E0D3DC64E170E09B
:100B100080E090E0ABDD60E086E0CBDC61E085E08A
:100B2000C8DC61E08AE0C5DC60E089E0C2DC64E149
:100B300070E080E090E09ADD219709F0B9CF60E0A5
:100B400087E0B7DC60E088E0B4DC4AE050E060E1D8
:100B500072E085E292E08BDB74DC86CFEE0FFF1F44
:100B6000881F8BBF0790F691E02D199481E090E0EB
:080B7000F89400C0F894FFCFD7
:100B780000000000BA013701840162017601000219
:0C0B880048756D69646974793A200000BA
:00000001FF
