:1000000014C1000042C1000040C100003EC1000018
:100010003CC100003AC1000038C1000036C10000F8
:1000200034C1000032C1000030C100002EC1000008
:100030002CC100002AC1000028C1000026C1000018
:1000400024C1000022C1000020C100001EC1000028
:100050001CC100001AC1000018C1000019C5000031
:1000600014C10000DFC40000B4C400000EC10000D1
:100070000CC100000AC1000008C1000006C1000058
:1000800004C1000002C1000000C10000FEC0000069
:10009000FCC00000FAC00000F8C00000F6C000007C
:1000A000F4C00000F2C00000F0C00000EEC000008C
:1000B000ECC00000EAC00000E8C00000E6C000009C
:1000C000E4C00000E2C00000E0C00000DEC00000AC
:1000D000DCC00000DAC00000D8C00000D6C00000BC
:1000E000D4C0000082028502740278027E02BC0243
:1000F00089028D02930297029B02A102A502A90226
:10010000BC02AF02B302B7020000210024002700A6
:100110002A002D0030003300010100000401070116
:100120000A0100002200250028002B002E003100CB
:10013000340002010000050108010B01000020004D
:100140002300260029002C002F00320000010000AF
:10015000030106010901050505050705080808084A
:10016000020202020A0A080804040404010101014F
:10017000010101010303030303030303040707074A
:100180000C0C0C0C0C0C0C0C0202020206060606EF
:10019000060606060B0B0B0B0B0B0B0B01021020BC
:1001A00020080810204010204080020102010804AD
:1001B0000201010204081020408080402010080441
:1001C000020180040201804020100804020108049A
:1001D00002010102040810204080010204081020DE
:1001E000408000000A0B02090C0D0E0807030401F1
:1001F00000000000000000000000000000000000FF
:1002000000000000000000000000000000001211CB
:1002100010000000000000000000000000000000CE
:100220000000000000000000920511241FBECFEF67
:10023000D1E2DEBFCDBF00E00CBF12E0A0E0B2E033
:10024000E0EFF2E100E00BBF02C007900D92A43393
:10025000B107D9F722E0A4E3B2E001C01D92A83EA5
:10026000B207E1F711E0C5E1D1E000E006C0219757
:100270000109802FFE010E946A09C431D10780E084
:100280000807A9F786D40C947609BACECF92DF92EC
:10029000EF92FF920F931F93CF93DF936C017A013C
:1002A0008B01C0E0D0E0CE15DF0589F0D8016D915B
:1002B0008D01D601ED91FC910190F081E02DC601F8
:1002C0001995892B11F47E0102C02196ECCFC7014C
:1002D000DF91CF911F910F91FF90EF90DF90CF9022
:1002E0000895FC01918D828D981761F0828DDF0158
:1002F000A80FB11D5D968C91928D9F5F9F73928F19
:1003000090E008958FEF9FEF0895FC01918D828D0D
:10031000981731F0828DE80FF11D858D90E00895DA
:100320008FEF9FEF0895FC01918D228D892F90E032
:10033000805C9F4F821B91098F73992708958DE3ED
:1003400092E0F1DF21E0892B09F420E0822F08956B
:10035000FC01848DDF01A80FB11DA35ABF4F2C9162
:10036000848D90E001968F739927848FA689B78931
:100370002C93A089B1898C9180648C93938D848D0A
:10038000981306C00288F389E02D80818F7D8083D9
:100390000895EF92FF920F931F93CF93DF93EC0199
:1003A00081E0888F9B8D8C8D981305C0E889F98931
:1003B000808185FD23C0F62E0B8D10E00F5F1F4F4F
:1003C0000F731127E02E8C8DE8120BC00FB607FCBF
:1003D000FACFE889F989808185FFF5CFCE01B8DFB2
:1003E000F2CF8B8DFE01E80FF11DE35AFF4FF08233
:1003F0000B8FEA89FB898081806207C0EE89FF89C3
:100400006083E889F98980818064808381E090E05D
:10041000DF91CF911F910F91FF90EF900895CF93AF
:10042000DF93EC01888D8823C1F0EA89FB89808104
:1004300085FD05C0A889B9898C9186FD0EC00FB6CF
:1004400007FCF5CF808185FFF2CFA889B9898C910F
:1004500085FFEDCFCE017CDFE8CFDF91CF9108950E
:1004600080E090E0892B19F06ADF811125C080E0DF
:1004700090E0892B41F080E090E0892B21F00E94F0
:10048000000081111CC080E090E0892B41F080E0E9
:1004900090E0892B21F00E940000811113C080E0C0
:1004A00090E0892BA1F080E090E0892B81F00E9400
:1004B000000081110AC008950E940000D8CF0E9458
:1004C0000000E1CF0E940000EACF0C9400000895E4
:1004D00090E0FC013197E231F10508F04DC088272A
:1004E000EE58FF4F8F4FF6C6809180008F7703C084
:1004F000809180008F7D809380000895809180009E
:10050000877FF9CF84B58F7702C084B58F7D84BD96
:1005100008958091B0008F7703C08091B0008F7DE7
:100520008093B0000895809190008F7707C08091EC
:1005300090008F7D03C080919000877F8093900012
:1005400008958091A0008F7707C08091A0008F7DD3
:1005500003C08091A000877F8093A00008958091C0
:1005600020018F7707C0809120018F7D03C080918B
:100570002001877F809320010895CF93DF93282F58
:1005800030E0F901EE51FE4F8491F901E456FE4F3F
:10059000D491F901EA5AFE4FC491CC2389F081111C
:1005A00097DFEC2FF0E0EE0FFF1FE45CFE4FA5910C
:1005B000B491EC91ED2381E090E021F480E002C061
:1005C00080E090E0DF91CF9108951F93CF93DF9368
:1005D000282F30E0F901EE51FE4F8491F901E456E5
:1005E000FE4FD491F901EA5AFE4FC491CC23C1F0D9
:1005F000162F81116DDFEC2FF0E0EE0FFF1FEE5D87
:10060000FE4FA591B4918FB7F894111105C09C913C
:10061000ED2FE095E92302C0EC91ED2BEC938FBF19
:10062000DF91CF911F910895CF93DF9390E0FC016C
:10063000E456FE4F2491FC01EA5AFE4F8491882330
:1006400061F190E0880F991FFC01E85FFE4FC591B2
:10065000D491FC01EE5DFE4FA591B491611109C0EA
:100660009FB7F8948881209582238883EC912E236C
:100670000BC0623061F49FB7F8943881822F809567
:1006800083238883EC912E2B2C939FBF06C08FB7BA
:10069000F894E8812E2B28838FBFDF91CF910895A6
:1006A0003FB7F8948091350290913602A0913702BD
:1006B000B091380226B5A89B05C02F3F19F00196CE
:1006C000A11DB11D3FBFBA2FA92F982F8827820FD8
:1006D000911DA11DB11DBC01CD0142E0660F771F28
:1006E000881F991F4A95D1F708958F929F92AF92D4
:1006F000BF92CF92DF92EF92FF926B017C01D0DF2D
:100700004B015C01C114D104E104F104E9F0C8DF3C
:10071000DC01CB0188199909AA09BB09883E9340DD
:10072000A105B10578F321E0C21AD108E108F1086A
:1007300088EE880E83E0981EA11CB11CC114D10460
:10074000E104F10421F7DECFFF90EF90DF90CF902E
:10075000BF90AF909F908F900895EF92FF921F935C
:10076000CF93DF932FB7F8948091390290913A029A
:10077000A0913B02B0913C022FBF4091E302509107
:10078000E4026091E5027091E60284179507A607DE
:10079000B70740F41092E3021092E4021092E502CF
:1007A0001092E6022091E702211113C04091E3026A
:1007B0005091E4026091E5027091E602841B950B72
:1007C000A60BB70B803D9740A105B10510F481E061
:1007D00089C01092E7022FB7F89480913902909166
:1007E0003A02A0913B02B0913C022FBF8093E302FA
:1007F0009093E402A093E502B093E6021092DE0229
:100800001092DD021092DC021092DB021092DA02EA
:1008100061E08091E002D9DE6AEF70E080E090E074
:1008200064DF61E08091E002FFDE60E08091E00241
:10083000CCDE64E170E080E090E057DFF89461E0A6
:100840008091E002C2DE8BE990E00197F1F760E071
:100850008091E002E9DE10E0C0E081E0D0E0E82E27
:10086000F12C8091E00289DE8E159F0519F4DF5F7F
:10087000DF3FB9F78091E00280DEDF3FC1F0C43096
:1008800098F0C0FD11C0E12FE695E695E695F0E001
:10089000E652FD4F9081990F90832091E2022D172F
:1008A00010F4916090831F5FCF5FC535B9F67894DF
:1008B0001832B8F02091DE0230E04091DA028091E7
:1008C000DB0290E0840F911D4091DC02840F911DAA
:1008D0004091DD02840F911D99272817390709F4EB
:1008E00076CF80E0DF91CF911F91FF90EF90089538
:1008F000CF92DF92EF92FF92CF93DF93C82F2DDF3D
:10090000882309F450C09091E1029B3031F008F443
:100910004AC09551923098F046C06091DC0270E078
:1009200080E090E0BED3CC2309F442C020E030E068
:1009300040E151E46B017C01C701B60128C0D091B0
:10094000DC026D2F6F7770E080E090E0ACD320E0A8
:1009500030E040E853E433D46B017C014091DD0288
:10096000642F70E080E090E09ED39B01AC01C70152
:10097000B601CBD220E030E040E251E42AD3D7FDEB
:100980009058CC23A9F020E030E040E151E417D4A6
:1009900020E030E040EA50E41CD320E030E040E0CA
:1009A00052E4B3D205C040E030E020EC9FE703C042
:1009B000462F372F282FC42ED32EE22EF92EC70113
:1009C000B601DF91CF91FF90EF90DF90CF90089527
:1009D00089D41F920F920FB60F9211240BB60F926B
:1009E0002F933F934F935F936F937F938F939F9337
:1009F000AF93BF93EF93FF938DE392E0A9DCFF9158
:100A0000EF91BF91AF919F918F917F916F915F9186
:100A10004F913F912F910F900BBE0F900FBE0F90F3
:100A20001F9018951F920F920FB60F9211240BB6BC
:100A30000F922F938F939F93EF93FF93E0914D022B
:100A4000F0914E028081E0915302F091540282FDB8
:100A500012C09081809156028F5F8F732091570250
:100A6000821751F0E0915602F0E0E35CFD4F958F64
:100A70008093560201C08081FF91EF919F918F91E9
:100A80002F910F900BBE0F900FBE0F901F901895D7
:100A90001F920F920FB60F9211242F933F938F93B3
:100AA0009F93AF93BF938091390290913A02A091A6
:100AB0003B02B0913C023091340223E0230F2D37EA
:100AC00020F40196A11DB11D05C026E8230F029652
:100AD000A11DB11D209334028093390290933A02F4
:100AE000A0933B02B0933C02809135029091360274
:100AF000A0913702B09138020196A11DB11D8093DB
:100B0000350290933602A0933702B0933802BF911A
:100B1000AF919F918F913F912F910F900FBE0F90AA
:100B20001F901895EDE3F2E01382128288EE93E0B5
:100B3000A0E0B0E084839583A683B78384E092E04D
:100B40009183808385EC90E09587848784EC90E0A6
:100B50009787868780EC90E0918B808B81EC90E08A
:100B6000938B828B82EC90E0958B848B86EC90E06B
:100B7000978B868B118E128E138E148EEAEDF2E017
:100B800086E286838BE0878386E0808781E08587A5
:100B90000895789484B5826084BD84B5816084BDF5
:100BA00085B5826085BD85B5816085BD80916E000B
:100BB000816080936E00109281008091810082603C
:100BC0008093810080918100816080938100809179
:100BD00080008160809380008091B1008460809368
:100BE000B1008091B00081608093B000809191004D
:100BF0008260809391008091910081608093910048
:100C0000809190008160809390008091A10082602B
:100C10008093A1008091A10081608093A1008091C8
:100C2000A00081608093A000809121018260809368
:100C30002101809121018160809321018091200117
:100C400081608093200180917A00846080937A0093
:100C500080917A00826080937A0080917A0081602E
:100C600080937A0080917A00806880937A00109255
:100C7000C100E0914D02F0914E0282E08083E0914C
:100C80004902F0914A021082E0914B02F0914C022D
:100C90008FEC808310925502E0915102F091520244
:100CA00086E08083E0914F02F09150028081806164
:100CB0008083E0914F02F0915002808188608083B0
:100CC000E0914F02F0915002808180688083E09132
:100CD0004F02F091500280818F7D808360E080918F
:100CE000E002A2DC61E08091E0026FDC1092E3029E
:100CF0001092E4021092E5021092E60261E086E1B1
:100D000093DC61E088E190DC61E08AE18DDC61E008
:100D10008CE18ADC61E08EE187DC61E080E284DCEA
:100D200061E082E281DC61E084E27EDC61E087E018
:100D30007BDC61E086E078DC61E085E075DC61E029
:100D400088E072DC61E08AE06FDC61E089E06CDC05
:100D500061E08DE069DC60E08DE037DC8DE392E0FE
:100D6000E2DA181619060CF068C08DE392E0B9DAE1
:100D7000813671F0823609F060C060E086E125DCE2
:100D800060ED77E080E090E0B0DC61E086E154C0A7
:100D900061E087E01ADC61E088E017DCC4E1D0E0C4
:100DA00060E086E012DC61E085E00FDC60E08AE074
:100DB0000CDC61E089E009DC64E170E080E090E057
:100DC00094DC61E086E001DC60E085E0FEDB60E071
:100DD0008AE0FBDB61E089E0F8DB64E170E080E061
:100DE00090E083DC61E086E0F0DB60E085E0EDDB55
:100DF00061E08AE0EADB60E089E0E7DB64E170E083
:100E000080E090E072DC60E086E0DFDB61E085E0BE
:100E1000DCDB61E08AE0D9DB60E089E0D6DB64E11D
:100E200070E080E090E061DC219709F0B9CF60E0EC
:100E300087E0CBDB60E088E0C8DB8FDC882381F1D2
:100E40008091E1028B3019F158F18551823040F5E3
:100E50006091DA0270E080E090E023D120E030E0A1
:100E600040E853E4ACD16B017C018091DB02682F38
:100E700070E080E090E017D19B01AC01C701B601A2
:100E800044D020E030E040E251E4A3D006C06091BD
:100E9000DA0270E080E090E004D16B017C0106C0D2
:100EA000C12CD12C80ECE82E8FE7F82E80E020DDDD
:100EB0002B013C0181E01CDD4B015C01A701960187
:100EC000C701B601DFD1811110C0A3019201C30196
:100ED000B201D8D1811109C0A5019401C501B401A5
:100EE000D1D1811102C0BCDA39CF4FE150E060E1CD
:100EF00072E08DE392E0CAD942E050E060E372E034
:100F00008DE392E0C3D9EFCF5058BB27AA270ED06C
:100F10001CC10DD130F012D120F031F49F3F11F4FB
:100F20001EF402C10EF4E095E7FBF8C0E92F1ED1D4
:100F300080F3BA17620773078407950718F071F4F6
:100F40009EF536C10EF4E0950B2EBA2FA02D0B01A5
:100F5000B90190010C01CA01A0011124FF27591BFE
:100F600099F0593F50F4503E68F11A16F040A22F04
:100F7000232F342F4427585FF3CF46953795279575
:100F8000A795F0405395C9F77EF41F16BA0B620B74
:100F9000730B840BBAF09150A1F0FF0FBB1F661FBB
:100FA000771F881FC2F70EC0BA0F621F731F841FFE
:100FB00048F4879577956795B795F7959E3F08F024
:100FC000B3CF9395880F08F09927EE0F97958795E3
:100FD00008950CD0BAC0B2D040F0A9D030F021F4BE
:100FE0005F3F19F09BC05111E4C09EC0BFD098F381
:100FF0009923C9F35523B1F3951B550BBB27AA279A
:1010000062177307840738F09F5F5F4F220F331F0B
:10101000441FAA1FA9F333D00E2E3AF0E0E830D0D7
:1010200091505040E695001CCAF729D0FE2F27D0DA
:10103000660F771F881FBB1F261737074807AB07A8
:10104000B0E809F0BB0B802DBF01FF2793585F4F1D
:101050002AF09E3F510568F061C0ABC05F3FECF3E2
:10106000983EDCF3869577956795B795F7959F5FE2
:10107000C9F7880F911D9695879597F90895E1E036
:10108000660F771F881FBB1F621773078407BA0795
:1010900020F0621B730B840BBA0BEE1F88F7E095F0
:1010A0000895E89409C097FB3EF49095809570955B
:1010B00061957F4F8F4F9F4F9923A9F0F92F96E9A4
:1010C000BB279395F695879577956795B795F11119
:1010D000F8CFFAF4BB0F11F460FF1BC06F5F7F4FB6
:1010E0008F4F9F4F16C0882311F096E911C07723C8
:1010F00021F09EE8872F762F05C0662371F096E8D1
:10110000862F70E060E02AF09A95660F771F881F9F
:10111000DAF7880F9695879597F9089597F99F675D
:1011200080E870E060E008959FEF80EC089500246F
:101130000A941616170618060906089500240A943C
:1011400012161306140605060895092E0394000CC2
:1011500011F4882352F0BB0F40F4BF2B11F460FF51
:1011600004C06F5F7F4F8F4F9F4F089557FD90587A
:10117000440F551F59F05F3F71F04795880F97FB5B
:10118000991F61F09F3F79F0879508951216130615
:101190001406551FF2CF4695F1DF08C01616170644
:1011A0001806991FF1CF8695710561050894089579
:1011B000E894BB2766277727CB0197F908950BD0D2
:1011C000C4CFB5DF28F0BADF18F0952309F0A6CF19
:1011D000ABCF1124EECFCADFA0F3959FD1F3950FCB
:1011E00050E0551F629FF001729FBB27F00DB11DAB
:1011F000639FAA27F00DB11DAA1F649F6627B00D3B
:10120000A11D661F829F2227B00DA11D621F739F23
:10121000B00DA11D621F839FA00D611D221F749F31
:101220003327A00D611D231F849F600D211D822F78
:10123000762F6A2F11249F5750408AF0E1F08823BF
:101240004AF0EE0FFF1FBB1F661F771F881F9150CC
:101250005040A9F79E3F510570F060CFAACF5F3F85
:10126000ECF3983EDCF3869577956795B795F795FF
:10127000E7959F5FC1F7FE2B880F911D9695879587
:1012800097F9089503D0880B990B0895990F0008DA
:10129000550FAA0BE0E8FEEF16161706E807F90748
:1012A000C0F012161306E407F50798F0621B730BE3
:1012B000840B950B39F40A2661F0232B242B252B64
:1012C00021F408950A2609F4A140A6958FEF811D07
:1012D000811D0895EE0FFF1F881F8BBF0790F691A9
:1012E000E02D199481E090E0F89400C0F894FFCFCD
:1012F00000000000C90146019301710185010F0240
:101300004661696C656420746F2072656164206653
:10131000726F6D204448542073656E736F722100A4
:041320000D0A0000B2
:00000001FF
