:1000000007C1000033C1000031C100002FC1000052
:100010002DC100002BC1000029C1000027C1000034
:1000200025C1000023C1000021C100001FC1000044
:100030001DC100001BC1000019C1000017C1000054
:1000400015C1000013C1000011C100000FC1000064
:100050000DC100000BC1000009C1000096C30000E3
:1000600005C100005CC3000031C30000FFC00000F8
:10007000FDC00000FBC00000F9C00000F7C0000098
:10008000F5C00000F3C00000F1C00000EFC00000A8
:10009000EDC00000EBC00000E9C00000E7C00000B8
:1000A000E5C00000E3C00000E1C00000DFC00000C8
:1000B000DDC00000DBC00000D9C00000D7C00000D8
:1000C000D5C00000D3C00000D1C00000CFC00000E8
:1000D000CDC00000CBC00000C9C00000C7C00000F8
:1000E000C5C000003A053D052C05300534057405F2
:1000F000410545054B054F05530559055D0561054E
:10010000740567056B056F0500000A0B02090C0DED
:100110000E080703040100000000000000000000BA
:1001200000000000000000000000000000000000CF
:10013000000000001211100000000000000000008C
:1001400000000000000000000000000000000000AF
:100150002200250028002B002E003100340002016F
:100160000000050108010B01000021002400270008
:100170002A002D00300033000101000004010701B6
:100180000A0105050505070508080808020202021C
:100190000A0A080804040404010101010101010123
:1001A0000303030303030303040707070C0C0C0CEE
:1001B0000C0C0C0C020202020606060606060606D7
:1001C0000B0B0B0B0B0B0B0B010210202008081064
:1001D00020401020408002010201080402010102B7
:1001E0000408102040808040201008040201800490
:1001F00002018040201008040201080402010102EB
:1002000004081020408001020408102040800F04E0
:1002100011241FBECFEFD1E2DEBFCDBF00E00CBF87
:1002200023E0A6E3B2E001C01D92AC32B207E1F7D1
:1002300012E0A0E0B2E0E0E9FDE000E00BBF02C0A8
:1002400007900D92A633B107D9F711E0C8E0D1E0CD
:1002500000E005C021970109802FFE018BD5C73032
:10026000D10780E00807B1F719D390C5C9CEE7E4FC
:10027000F2E0A089B18982E08C93A485B5851C92B7
:10028000A685B7858FEC8C93108EA489B58986E0FE
:100290008C93A289B3898C9180618C93A289B38954
:1002A0008C9188608C93A289B3898C9180688C939F
:1002B0000288F389E02D80818F7D8083089590E00E
:1002C000FC01E853FE4F2491FC01EE57FE4F849150
:1002D000882399F090E0880F991FFC01E859FE4FA0
:1002E000A591B491FC01E25BFE4F859194918FB78B
:1002F000F894EC91E22BEC938FBF0895CF92DF92AC
:10030000EF92FF920F931F93CF93DF936C017A01CB
:100310008B01C0E0D0E0CE15DF0589F0D8016D91EA
:100320008D01D601ED91FC910190F081E02DC60187
:100330001995892B11F47E0102C02196ECCFC701DB
:10034000DF91CF911F910F91FF90EF90DF90CF90B1
:100350000895FC01918D828D981761F0828DDF01E7
:10036000A80FB11D5D968C91928D9F5F9F73928FA8
:1003700090E008958FEF9FEF0895FC01918D828D9D
:10038000981731F0828DE80FF11D858D90E008956A
:100390008FEF9FEF0895FC01918D228D892F90E0C2
:1003A000805C9F4F821B91098F739927089587E482
:1003B00092E0F1DF21E0892B09F420E0822F0895FB
:1003C000FC01848DDF01A80FB11DA35ABF4F2C91F2
:1003D000848D90E001968F739927848FA689B789C1
:1003E0002C93A089B1898C9180648C93938D848D9A
:1003F000981306C00288F389E02D80818F7D808369
:100400000895EF92FF920F931F93CF93DF93EC0128
:1004100081E0888F9B8D8C8D981305C0E889F989C0
:10042000808185FD23C0F62E0B8D10E00F5F1F4FDE
:100430000F731127E02E8C8DE8120BC00FB607FC4E
:10044000FACFE889F989808185FFF5CFCE01B8DF41
:10045000F2CF8B8DFE01E80FF11DE35AFF4FF082C2
:100460000B8FEA89FB898081806207C0EE89FF8952
:100470006083E889F98980818064808381E090E0ED
:10048000DF91CF911F910F91FF90EF900895CF933F
:10049000DF93EC01888D8823C1F0EA89FB89808194
:1004A00085FD05C0A889B9898C9186FD0EC00FB65F
:1004B00007FCF5CF808185FFF2CFA889B9898C919F
:1004C00085FFEDCFCE017CDFE8CFDF91CF9108959E
:1004D00080E090E0892B19F06ADF811125C080E06F
:1004E00090E0892B41F080E090E0892B21F00E9480
:1004F000000081111CC080E090E0892B41F080E079
:1005000090E0892B21F00E940000811113C080E04F
:1005100090E0892BA1F080E090E0892B81F00E948F
:10052000000081110AC008950E940000D8CF0E94E7
:100530000000E1CF0E940000EACF0C940000089573
:100540003FB7F89480913B0290913C02A0913D020C
:10055000B0913E0226B5A89B05C02F3F19F0019629
:10056000A11DB11D3FBFBA2FA92F982F8827820F39
:10057000911DA11DB11DBC01CD0142E0660F771F89
:10058000881F991F4A95D1F708958F929F92AF9235
:10059000BF92CF92DF92EF92FF926B017C01D0DF8E
:1005A0004B015C01C114D104E104F104E9F0C8DF9E
:1005B000DC01CB0188199909AA09BB09883E93403F
:1005C000A105B10578F321E0C21AD108E108F108CC
:1005D00088EE880E83E0981EA11CB11CC114D104C2
:1005E000E104F10421F7DECFFF90EF90DF90CF9090
:1005F000BF90AF909F908F9008952FB7F89460911F
:100600003702709138028091390290913A022FBFDF
:100610000895B8D36115710579F0FB0101900020B0
:10062000E9F73197AF01461B570BDC01ED91FC91C7
:100630000280F381E02D199480E090E008954F92BC
:100640005F926F927F92EF92FF920F931F93CF93DF
:10065000DF93CDB7DEB7A1970FB6F894DEBF0FBE1C
:10066000CDBF7C01FA01CB0119A2223008F42AE0A7
:100670008E010F5D1F4F422E512C612C712CBF013A
:10068000A301920155D3F901CA01015011096A3041
:1006900014F4605D01C0695CD8016C93232B242B9A
:1006A000252B69F7B801C701B5DFA1960FB6F894FD
:1006B000DEBF0FBECDBFDF91CF911F910F91FF9095
:1006C000EF907F906F905F904F9008951F920F92E0
:1006D0000FB60F9211240BB60F922F933F934F93A7
:1006E0005F936F937F938F939F93AF93BF93EF939A
:1006F000FF9387E492E064DEFF91EF91BF91AF91A9
:100700009F918F917F916F915F914F913F912F9129
:100710000F900BBE0F900FBE0F901F9018951F9259
:100720000F920FB60F9211240BB60F922F938F9347
:100730009F93EF93FF93E0915702F09158028081CD
:10074000E0915D02F0915E0282FD12C09081809185
:1007500060028F5F8F7320916102821751F0E091E8
:100760006002F0E0E95BFD4F958F8093600201C06D
:100770008081FF91EF919F918F912F910F900BBEF0
:100780000F900FBE0F901F9018951F920F920FB6EB
:100790000F9211242F933F938F939F93AF93BF9307
:1007A0008091370290913802A0913902B0913A02BB
:1007B0003091360223E0230F2D3720F40196A11D3E
:1007C000B11D05C026E8230F0296A11DB11D20937F
:1007D00036028093370290933802A0933902B09387
:1007E0003A0280913B0290913C02A0913D02B0916F
:1007F0003E020196A11DB11D80933B0290933C02E5
:10080000A0933D02B0933E02BF91AF919F918F9113
:100810003F912F910F900FBE0F901F901895E7E416
:10082000F2E01382128288EE93E0A0E0B0E08483CD
:100830009583A683B78384E092E09183808385ECDF
:1008400090E09587848784EC90E09787868780EC9A
:1008500090E0918B808B81EC90E0938B828B82EC8B
:1008600090E0958B848B86EC90E0978B868B118E35
:10087000128E138E148EE4EEF2E01682178210862A
:100880001186128613861486158616861786108A98
:10089000118A128A138A148A158A0895789484B565
:1008A000826084BD84B5816084BD85B5826085BD6C
:1008B00085B5816085BD80916E00816080936E00FA
:1008C00010928100809181008260809381008091EC
:1008D000810081608093810080918000816080939D
:1008E00080008091B10084608093B1008091B0005D
:1008F00081608093B000809191008260809391002C
:10090000809191008160809391008091900081603E
:10091000809390008091A10082608093A1008091DB
:10092000A10081608093A1008091A00081608093EC
:10093000A00080912101826080932101809121019A
:10094000816080932101809120018160809320014A
:1009500080917A00846080937A0080917A0082602E
:1009600080937A0080917A00816080937A008091F0
:100970007A00806880937A001092C1001092280358
:100980001092290310922A0310922B031092E60270
:100990001092E7021092E8021092E90260ED77E00F
:1009A00080E090E0F2DD87E492E09093270380936B
:1009B00026035DDC22DE6093E6027093E7028093FB
:1009C000E8029093E90260E172E080912603909141
:1009D000270320DE6AE070E080E090E0D6DD81E071
:1009E0008093FA0244DC86E16ADC88E168DC8AE113
:1009F00066DC8CE164DC8EE162DC80E260DC82E259
:100A00005EDC84E25CDC87E05ADC86E058DC85E072
:100A100056DC88E054DC8AE052DC89E050DC8DE072
:100A20004EDCE5E1F1E04491E5EDF1E02491EFE801
:100A3000F1E09491992309F466C0442309F454C069
:100A400050E0FA013197E231F10508F04DC08827F6
:100A5000EE58FF4F8F4F8EC1809180008F7707C077
:100A6000809180008F7D03C080918000877F80937C
:100A700080003AC084B58F7702C084B58F7D84BD75
:100A800033C08091B0008F7703C08091B0008F7D1C
:100A90008093B00029C0809190008F7707C080912B
:100AA00090008F7D03C080919000877F809390009D
:100AB0001BC08091A0008F7707C08091A0008F7D20
:100AC00003C08091A000877F8093A0000DC080911B
:100AD00020018F7707C0809120018F7D03C0809116
:100AE0002001877F80932001E92FF0E0EE0FFF1FA8
:100AF000E25BFE4FA591B4918FB7F894EC912095ED
:100B00002E232C938FBF84EF882E99249394A12CAD
:100B1000B12C73DD672B682B692B39F46EDD6230E5
:100B200071058105910508F4F8C067DD6093430203
:100B3000709344028093450290934602C0903F0216
:100B4000D0904002E0904102F09042026C157D0589
:100B50008E059F0540F460933F027093400280939E
:100B6000410290934202C0903F02D0904002E09038
:100B70004102F09042029B01AC012C193D094E0943
:100B80005F0969017A013AEFC316D104E104F10467
:100B900008F4C3C060933F02709340028093410207
:100BA000909342028092F2029092F302A092F40299
:100BB000B092F5021092F6021092F7021092F8022B
:100BC0001092F9028091EA029091EB02A091EC025E
:100BD000B091ED028093EE029093EF02A093F002A9
:100BE000B093F1020ADD6093EA027093EB02809306
:100BF000EC029093ED0201DD6093E6027093E70250
:100C00008093E8029093E902F8DC6B017C0162E2D8
:100C100072E08091260390912703FCDC2AE041E0FA
:100C200050E060E070E0809126039091270307DD9B
:100C300069E272E08091260390912703EBDC2AE0C1
:100C4000B701A6018091260390912703F8DC6BE29F
:100C500072E08091260390912703DCDC8091EA0208
:100C60009091EB02A091EC02B091ED02B701A601C8
:100C7000481B590B6A0B7B0B2AE08091260390914D
:100C80002703DDDC6BE272E080912603909127035D
:100C9000C1DC4091EA025091EB026091EC0270914C
:100CA000ED028091EE029091EF02A091F002B091DE
:100CB000F102481B590B6A0B7B0B2AE0809126033B
:100CC00090912703BCDC6DE272E080912603909145
:100CD0002703A0DC92DCAB01BC012AE08091260353
:100CE00090912703ACDCE0902603F09027036FE29D
:100CF00072E0C7018FDC6FE172E0C7018BDC62E05C
:100D000070E080E090E041DC78DC6093EA02709370
:100D1000EB028093EC029093ED0287E492E03BDBE0
:100D2000181619061CF487E492E013DBD1DBF1CE30
:100D3000A1E21A2EAA1BBB1BFD010DC0AA1FBB1FDF
:100D4000EE1FFF1FA217B307E407F50720F0A21B51
:100D5000B30BE40BF50B661F771F881F991F1A94BE
:100D600069F760957095809590959B01AC01BD01E8
:100D7000CF010895EE0FFF1F881F8BBF0790F691DC
:100D8000E02D199481E090E0F89400C0F894FFCF32
:100D90000000000001027E01CB01A901BD01470254
:100DA000564D4450565F317C315F564D4450560D80
:100DB0000A00564D4450455F003A323A007C005FCD
:060DC000564D44504500B1
:00000001FF
